:020000040800F2
:100000000000082095400008A93F0008AB3F000809
:10001000AD3F0008AF3F0008B13F000800000000FE
:10002000000000000000000000000000B33F0008D6
:10003000B53F000800000000B73F0008B93F0008C6
:10004000E5400008E5400008E5400008E5400008FC
:10005000E5400008E5400008C13F0008E540000811
:10006000E5400008E5400008E5400008E5400008DC
:10007000E5400008E5400008E5400008E5400008CC
:10008000E5400008E5400008E5400008E5400008BC
:10009000E5400008E5400008E5400008E5400008AC
:1000A000E5400008E5400008E5400008E54000089C
:1000B000E5400008E5400008E5400008E54000088C
:1000C000E5400008E5400008E5400008E54000087C
:1000D000E5400008E5400008E5400008E54000086C
:1000E000E5400008E5400008E5400008E54000085C
:1000F000E5400008E5400008E5400008E54000084C
:10010000E5400008E5400008E5400008E54000083B
:10011000E5400008E5400008E5400008E54000082B
:10012000E5400008E5400008E5400008E54000081B
:10013000E5400008E5400008E5400008E54000080B
:10014000E5400008E5400008E5400008E5400008FB
:10015000E5400008E5400008E5400008E5400008EB
:10016000E5400008E5400008E5400008E5400008DB
:10017000E5400008E5400008E540000800000000F8
:10018000E5400008E5400008E5400008E5400008BB
:10019000E5400008E5400008E5400008E5400008AB
:1001A000E5400008E5400008E5400008E54000089B
:1001B000E5400008E5400008E5400008E54000088B
:1001C000E5400008E540000800000000E5400008A8
:1001D000E5400008E5400008E5400008E54000086B
:1001E000E5400008E5400008E5400008E54000085B
:0801F000E5400008E5400008AD
:1001F80010B5054C237833B9044B13B10448AFF359
:1002080000800123237010BD300000200000000092
:100218004041000808B5034B1BB103490348AFF33D
:10022800008008BD000000003400002040410008A4
:1002380053B94AB9002908BF00281CBF4FF0FF3145
:100248004FF0FF3000F072B9ADF1080C6DE904CE43
:1002580000F006F8DDF804E0DDE9022304B0704799
:100268002DE9F047089E04468846002B4BD18A4268
:10027800154667D9B2FA82F24AB1C2F1200701FAEB
:1002880002F320FA07F7954047EA030894404FEA3B
:10029800154E230CB8FBFEF71FFA85FC0EFB1788DA
:1002A80043EA084307FB0CF1994209D9EB1807F117
:1002B800FF3080F01B81994240F21881023F2B44A5
:1002C8005B1AA4B2B3FBFEF00EFB103344EA0344FE
:1002D80000FB0CFCA44509D92C1900F1FF3380F070
:1002E8000781A44540F2048102382C4440EA0740C3
:1002F800A4EB0C0400271EB1D4400023C6E9004338
:100308003946BDE8F0878B4209D9002E00F0EB8012
:100318000027C6E9000138463946BDE8F087B3FA38
:1003280083F7002F47D18B4202D3824200F2FA8032
:10033800841A61EB030301209846002EE0D0C6E939
:100348000048DDE702B9FFDEB2FA82F2002A40F087
:100358008F80491B4FEA154E1FFA85F80127B1FB1C
:10036800FEFC230C0EFB1C1143EA014308FB0CF1B5
:10037800994207D9EB180CF1FF3002D2994200F2EA
:10038800CD808446591AA3B2B1FBFEF00EFB1014BF
:1003980043EA044408FB00F8A04507D92C1900F1EA
:1003A800FF3302D2A04500F2B6801846A4EB080439
:1003B80040EA0C409FE7C7F1200CBB4022FA0CFE34
:1003C8004EEA030E01FA07F420FA0CF521FA0CF3B1
:1003D8004FEA1E482543B3FBF8F92C0C08FB1933E8
:1003E8001FFA8EFA44EA034309FB0AF49C4202FA14
:1003F80007F200FA07F10BD91EEB030309F1FF30EE
:1004080080F087809C4240F28480A9F102097344FD
:100418001B1BADB2B3FBF8F008FB103345EA0344ED
:1004280000FB0AFAA24508D91EEB040400F1FF33C9
:100438006BD2A24569D90238744440EA0940A0FB4E
:100448000289A4EB0A044C45C2464B4654D351D00A
:10045800002E69D0B1EB0A0564EB030404FA0CFC26
:10046800FD40FC404CEA0505C6E90054002747E773
:10047800C2F1200320FA03F7954001FA02F021FAAD
:1004880003F34FEA154E3843010CB3FBFEF71FFA8E
:1004980085F80EFB173341EA034107FB08F38B424B
:1004A80004FA02F407D9691807F1FF3C2FD28B42EE
:1004B8002DD9023F2944CB1A81B2B3FBFEF00EFBC3
:1004C800103341EA034100FB08F38B4207D969184E
:1004D80000F1FF3C17D28B4215D902382944C91ABA
:1004E80040EA07473BE73746304609E70746E7E66D
:1004F8001846FBE64145ABD2B8EB020A69EB0E029F
:1005080001381346A4E76046E9E7184695E76746C9
:10051800D1E781467CE702382C4447E7ACF1020C6E
:100528002B442FE7384608E73746E9E6704700BF0F
:1005380010B504460E4B18784FF47A73B3FBF0F3FA
:100548000C4A1068B0FBF3F000F098F868B90F2C6B
:1005580001D901200AE0002221464FF0FF3000F0C7
:100568004FF8034B5C60002000E0012010BD00BF85
:10057800000000202C00002008B5032000F02EF811
:100588000020FFF7D5FF03F0A3FB002008BD000003
:10059800034A1168034B1B780B441360704700BF74
:1005A8005800002000000020014B1868704700BF69
:1005B8005800002038B50446FFF7F6FF0546B4F1A9
:1005C800FF3F02D0044B1B781C44FFF7EDFF401B94
:1005D800A042FAD338BD00BF000000200649CB680E
:1005E80023F4E0631B041B0C000200F4E0600343E7
:1005F800024A1A43CA60704700ED00E00000FA059D
:1006080030B4154BDB68C3F30223C3F10704042C91
:1006180028BF04241D1D062D14D9033B4FF0FF35B8
:1006280005FA04F421EA0401994005FA03F322EAE1
:1006380003031943002807DB0901C9B2074B195402
:1006480030BC70470023E9E700F00F000901C9B288
:10065800034B1954F4E700BF00ED00E000E400E0AC
:1006680014ED00E000F01F02400901239340024A04
:1006780042F82030704700BF00E100E00138B0F1D7
:10068800807F0AD2064B5860064AF02182F8231070
:100698000020986007221A6070470120704700BF49
:1006A80010E000E000ED00E05079137943EA002300
:1006B80007480B50D07893781B0443EA00635078BE
:1006C80043EA002312781343024A8B50704700BF55
:1006D800408002404480024070B59EB0044629B173
:1006E8004FF40063C3604FF480438360E369002BD9
:1006F80068D14FF48063079321680B68374A1A4022
:10070800A368E06803430798034343F40073134363
:100718000B6023681D680120FFF74CFF23681D60EC
:10072800236840225A6023685D680120FFF742FF72
:1007380023685D60236800259D602368DD6022686A
:10074800936923F0BE031B041B0C43F080039361E1
:1007580023689E690120FFF72DFF23689E612368A7
:10076800DD612368DD690120FFF724FF2368DD616F
:10077800216841F218054B59194A1A40194B13437D
:100788004B5123685E590120FFF714FF23685E511F
:10079800236803F58053144A1A60236803F58053CD
:1007A8001D680120FFF706FF236803F580531D60CD
:1007B800A369012B09D0626900212046FFF774FF65
:1007C8001EB070BD0023079396E7216841F21C0212
:1007D8008858064B03438B50EDE700BF0F8120FF7D
:1007E800233FDEF8040020028020C10240000100FF
:1007F800F8B590F84430DBB2822B33D01646054664
:10080800822380F844300268136903F01C03048AC9
:10081800E402A4B223438C0104F4F8641C4344F0BA
:1008280001041461FFF7C0FE074614F0010F10D051
:10083800FFF7BAFEC01BB0F5803F02D22B681C69D7
:10084800F3E7012385F84430002385F84530032079
:1008580007E02B685B699BB23360012385F844305D
:100868000020F8BD0220FCE790F84430DBB2422BB0
:1008780032D070B50546422380F8443000680369D9
:1008880003F01C032C8AE402A4B223438C0104F471
:10089800F8641C4344F0030492B242612B681C6163
:1008A800FFF782FE064614F0010F10D0FFF77CFE1A
:1008B800801BB0F5803F02D22B681C69F3E7012347
:1008C80085F84430002385F84530032003E00123F0
:1008D80085F84430002070BD0220704770B582B0A2
:1008E80000230193002800F00C81044690F844305E
:1008F800002B32D0844B5A6C42F480425A645B6CB1
:1009080003F480430093009B804B5A6822F4000252
:100918005A605A68216A0A435A60236803F580536B
:100928001A6842F001021A60FFF73EFE0546236886
:1009380003F58052126812F0010F13D0FFF734FE4E
:10094800401BB0F5FA7FF2D9032584F84450002300
:1009580084F84530284602B070BD80F8453003F071
:10096800CFF9C7E71D6925F01C0500F0CBFD684BE2
:100978000344684A934255D845F0080523681D6129
:100988004FF4004200212046FFF76EFF054600287D
:1009980060D1FF20FFF70EFE6368002B00F0918006
:1009A800FFF702FE064601AA01212046FFF720FFB5
:1009B800FFF7FAFD801B41F28833984252D8019B19
:1009C80013F0040FEFD04FF4805200212046FFF7B8
:1009D8004BFF002852D1FFF7E7FD064601AA012187
:1009E8002046FFF705FFFFF7DFFD801B41F2883344
:1009F80098424BD8019B13F0200FEFD001AA102189
:100A08002046FFF7F5FE00284CD1019B13F0040F98
:100A180050D04FF40062E26013F0020F4DD0002373
:100A2800A3605EE03C4B03443C4A934202D845F045
:100A38000C05A3E73A4B03443A4A93429ED93A4BF2
:100A480003443A4A934202D845F0040596E745F034
:100A5800100593E701212046FFF73EFE012584F8A3
:100A6800445077E701212046FFF736FE012384F83A
:100A78004430002384F8453003256BE701212046E4
:100A8800FFF72AFE012584F8445063E70121204638
:100A9800FFF722FE012384F84430002384F8453010
:100AA800032557E701212046FFF716FE012584F8A4
:100AB80044504FE70022E260AEE74FF48043A36062
:100AC8000FE0E268C2F3CF02A368C3F34F031A43EF
:100AD80000212046FFF7C8FE58B940F6FF70FFF71F
:100AE80069FD00212046FFF7F7FD012384F8443013
:100AF80030E701212046FFF7EFFD012584F8445037
:100B080028E7012526E700BF0038024000380140E9
:100B180000D3CEFEBFE1E40040F1E9FD3F787D015E
:100B280000796CFCFF596202001F0AFA7FF0FA0292
:100B380000230F2B00F2E280F0B482B039E00922E2
:100B480000E00022B2403A4302346D4E46F82420B9
:100B58006C4A1468EA4302EA04064F6817F4803FB7
:100B680001D045EA0406674C2660646802EA040678
:100B78004F6817F4003F01D045EA0406614C6660EF
:100B8800A46802EA04064F6817F4801F01D045EAFA
:100B980004065C4CA660E46822404E6816F4001F08
:100BA80001D045EA0402574CE26001330F2B00F2F2
:100BB800A28001229A400C6804EA0205AA42F4D1F4
:100BC8004C68122C18BF022C10D1DE08083650F8D9
:100BD80026C003F00704A7000F24BC402CEA040C2D
:100BE8000C69BC4044EA0C0440F8264004685F00E5
:100BF8000326BE40F64306EA040C4C6804F00304DE
:100C0800BC4044EA0C0404604C6804F1FF3C112C1D
:100C180018BFBCF1010F01D9122C11D1846806EA62
:100C2800040CCC68BC4044EA0C048460446824EAA0
:100C3800020C4C68C4F300129A4042EA0C0242606B
:100C4800C26816408A68BA403243C2604A6812F0E5
:100C5800805FAAD02C4A546C44F480445464526C8B
:100C680002F480420192019A9C08A61C244A52F878
:100C7800267003F0030296000F22B24027EA02070B
:100C8800224A90423FF45DAF02F58062904222D042
:100C980002F58062904220D002F5806290421ED018
:100CA80002F5806290421CD002F5806290421AD010
:100CB80002F58062904218D002F58062904216D008
:100CC80002F58062904214D002F5806290423FF4AF
:100CD80036AF0A2236E7012234E7022232E703223E
:100CE80030E704222EE705222CE706222AE707220E
:100CF80028E7082226E702B0F0BC7047704700BF1B
:100D080000380140003C0140003802400000024029
:100D180012B909048161704781617047704700000A
:100D280008B5054B5B69034200D108BD024B586109
:100D3800FFF7F4FFF9E700BF003C014000287DD031
:100D4800F0B58BB0044690F8BD33E3B1032384F8C3
:100D5800BD33206801F02CFE254655F8107B6E4601
:100D68000FCD0FC60FCD0FC695E8030086E8030028
:100D7800231D0ECB384601F0DDFD0021206801F06F
:100D88001DFE00231AE080F8BC3303F0C1F8DDE74C
:100D9800D900C81A82002244012082F83D0082F856
:100DA8003C30A2F84230002082F83F005064906442
:100DB800CA1A9100214408650133DBB20E2BE7D92A
:100DC800002315E0D800C11A8A002244002182F8C5
:100DD800FD1182F8FC3182F8FF11C2F80412C2F842
:100DE8000812C21A90002044C0F810120133DBB276
:100DF8000E2BE7D9254655F8107B6E460FCD0FC64A
:100E08000FCD0FC695E8030086E80300231D0ECB1F
:100E1800384601F019FE002384F83830012384F89D
:100E2800BD33636A012B05D0206801F0DFFE002086
:100E38000BB0F0BD204600F003F8F5E7012070473D
:100E4800024603680121C0F8F813002082F8F00375
:100E58009A6942F000629A61596D024A0A435A65DA
:100E6800704700BF03000010024A136843F4807300
:100E7800136070470070004010B582B01B4B1A6CAD
:100E880042F080521A641B6C03F080530193019B5B
:100E9800174A136843F480331360FFF785FB044651
:100EA800134B5B6813F4803F08D1FFF77DFB001BF1
:100EB800B0F57A7FF4D9032002B010BD0C4A13684C
:100EC80043F400331360FFF76FFB0446084B5B687D
:100ED80013F4003F07D1FFF767FB001BB0F57A7FDB
:100EE800F4D90320E8E70020E6E700BF0038024015
:100EF80000700040002800F0DC8170B582B0044624
:100F0800036813F0010F29D0A24B9B6803F00C0370
:100F1800042B1AD09F4B9B6803F00C03082B0FD0AF
:100F28006368B3F5803F40D0002B54D1994B1A68C1
:100F380022F480321A601A6822F480221A6039E09A
:100F4800944B5B6813F4800FEAD0924B1B6813F440
:100F5800003F03D06368002B00F0AD81236813F0D5
:100F6800020F75D08B4B9B6813F00C0F5ED0894B2A
:100F78009B6803F00C03082B53D0E368002B00F0A8
:100F88008A80844A136843F001031360FFF70CFB5F
:100F98000546804B1B6813F0020F73D1FFF704FB63
:100FA800401B0228F5D9032088E17A4A136843F4E4
:100FB8008033136063682BB3FFF7F6FA0546754B69
:100FC8001B6813F4003FC9D1FFF7EEFA401B6428F1
:100FD800F5D9032072E1B3F5A02F09D06D4B1A683B
:100FE80022F480321A601A6822F480221A60E1E73B
:100FF800684B1A6842F480221A601A6842F48032F8
:101008001A60D7E7FFF7D0FA0546624B1B6813F45E
:10101800003FA3D0FFF7C8FA401B6428F5D9032086
:101028004CE15C4B5B6813F4800FA6D1594B1B68ED
:1010380013F0020F04D0E368012B01D001203DE139
:10104800544A136823F0F803216943EAC103136083
:10105800236813F0080F46D0636983B34D4A536F72
:1010680043F001035367FFF79FFA0546494B5B6F4F
:1010780013F0020F37D1FFF797FA401B0228F5D972
:1010880003201BE1434A136823F0F803216943EA6C
:10109800C1031360DCE73F4A136823F001031360C0
:1010A800FFF782FA05463B4B1B6813F0020FCFD0BF
:1010B800FFF77AFA401B0228F5D90320FEE0354AEB
:1010C800536F23F001035367FFF76EFA0546314B60
:1010D8005B6F13F0020F06D0FFF766FA401B022879
:1010E800F5D90320EAE0236813F0040F7ED0294BDA
:1010F8001B6C13F0805F1ED1264B1A6C42F0805295
:101108001A641B6C03F080530193019B0125224B49
:101118001B6813F4807F10D0A368012B21D0002B0B
:101128003CD11C4B1A6F22F001021A671A6F22F089
:1011380004021A671AE00025E9E7174A136843F41E
:1011480080731360FFF730FA0646134B1B6813F4DD
:10115800807FE1D1FFF728FA801B6428F5D90320A6
:10116800ACE00C4A136F43F001031367A3685BB349
:10117800FFF71AFA0646074B1B6F13F0020F34D11C
:10118800FFF712FA801B41F288339842F3D9032003
:1011980094E000BF0038024000700040052B09D0E1
:1011A800484B1A6F22F001021A671A6F22F00402E4
:1011B8001A67DBE7434B1A6F42F004021A671A6F8B
:1011C80042F001021A67D1E7FFF7EEF906463D4BF8
:1011D8001B6F13F0020F08D0FFF7E6F9801B41F2EE
:1011E80088339842F3D9032068E0F5B9A369002B46
:1011F80063D0344A926802F00C02082A60D0022BAD
:1012080019D0304A136823F080731360FFF7CCF9C4
:1012180004462C4B1B6813F0007F48D0FFF7C4F935
:10122800001B0228F5D9032048E0264A136C23F056
:1012380080531364DAE7234A136823F0807313603A
:10124800FFF7B2F905461F4B1B6813F0007F06D065
:10125800FFF7AAF9401B0228F5D903202EE0E3691D
:10126800226A1343626A43EA8213A26A5208013A65
:1012780043EA0243E26A43EA0263226B43EA0273E7
:10128800104A5360136843F080731360FFF78CF9BA
:1012980004460C4B1B6813F0007F06D1FFF784F956
:1012A800001B0228F5D9032008E0002006E00020F2
:1012B80004E001207047012000E0002002B070BD6A
:1012C8000120FBE700380240324B9B6803F00C0317
:1012D800042B5CD0082B01D02F4870472DE9F04B28
:1012E8002C4B5A6802F03F025B6813F4800F2BD036
:1012F800284B5B68C3F388131E4600275C01002552
:10130800E41A65EB0705A90141EA9461A001001BF5
:1013180061EB0501CB0043EA5073C400A01943EB0D
:1013280007014B0243EAD0534402204619460023E2
:10133800FEF77EFF174B5B68C3F3014301335B0085
:10134800B0FBF3F0BDE8F08B124B5B68C3F3881376
:101358001E4600275C010025E41A65EB0705A90174
:1013680041EA9461A001001B61EB0501CB0043EA4F
:101378005073C400A01943EB07018B0243EA905352
:101388008402204619460023FEF752FFD2E703489D
:10139800704700BF003802400024F40000127A00B1
:1013A800002800F0A28070B50446524B1B6803F079
:1013B8000F038B420CD24F4A136823F00F030B43E1
:1013C8001360136803F00F038B4201D0012070BD36
:1013D800236813F0020F17D013F0040F04D0464A05
:1013E800936843F4E0539360236813F0080F04D024
:1013F800414A936843F4604393603F4A936823F0FB
:10140800F003A068034393600D46236813F0010FAF
:1014180031D06368012B20D0022B25D0364A1268C0
:1014280012F0020F63D034498A6822F00302134392
:101438008B60FFF7B9F806462F4B9B6803F00C0347
:101448006268B3EB820F16D0FFF7AEF8801B41F24B
:1014580088339842F0D90320B9E7274A126812F472
:10146800003FE0D10120B2E7234A126812F0007F62
:10147800D9D10120ABE71F4B1B6803F00F03AB4228
:101488000CD91C4A136823F00F032B43136013680D
:1014980003F00F03AB4201D0012098E7236813F053
:1014A800040F06D0144A936823F4E053E1680B4311
:1014B8009360236813F0080F07D00F4A936823F44A
:1014C8006043216943EAC1039360FFF7FDFE0A4BBD
:1014D8009B68C3F30313094AD35CD840084B1860D0
:1014E8000020FFF725F8002071E701207047012050
:1014F8006DE700BF003C0240003802405859000820
:101508002C000020014B1868704700BF2C000020F9
:1015180008B5FFF7F7FF044B9B68C3F38223034A20
:10152800D35CD84008BD00BF0038024068590008A5
:1015380008B5FFF7E7FF044B9B68C3F34233034A40
:10154800D35CD84008BD00BF003802406859000885
:10155800F0B583B00446036813F0010F0CD0B54B07
:101568009A6822F400029A609A68416B0A439A606A
:10157800436BC3B1002600E00026236813F4002F54
:1015880015D0AC4AD2F88C3023F44013E16B0B43EE
:10159800C2F88C30E36BB3F5801F06D0002B00F047
:1015A8004581002504E00126E7E70126F6E7002546
:1015B800236813F4801F0FD09E4AD2F88C3023F48E
:1015C8004003216C0B43C2F88C30236CB3F5800FB9
:1015D80000F02E8103B90125236813F0807F00D025
:1015E800012613F0200F40F02781236813F0100F15
:1015F8000CD0904BD3F88C2022F08072C3F88C204A
:10160800D3F88C20A16B0A43C3F88C20236813F409
:10161800804F08D0874AD2F8903023F44033616E67
:101628000B43C2F89030236813F4004F08D0814A66
:10163800D2F8903023F44023A16E0B43C2F89030C7
:10164800236813F4803F08D07A4AD2F8903023F404
:101658004013E16E0B43C2F89030236813F4003F47
:1016680008D0744AD2F8903023F44003216F0B431A
:10167800C2F89030236813F0400F08D06D4AD2F8B2
:10168800903023F00303616C0B43C2F89030236859
:1016980013F0800F08D0674AD2F8903023F00C037B
:1016A800A16C0B43C2F89030236813F4807F08D0F4
:1016B800604AD2F8903023F03003E16C0B43C2F853
:1016C8009030236813F4007F08D05A4AD2F890303B
:1016D80023F0C003216D0B43C2F89030236813F444
:1016E800806F08D0534AD2F8903023F44073616D6C
:1016F8000B43C2F89030236813F4006F08D04D4AAA
:10170800D2F8903023F44063A16D0B43C2F89030B7
:10171800236813F4805F08D0464AD2F8903023F447
:101728004053E16D0B43C2F89030236813F4005F17
:1017380008D0404AD2F8903023F44043216E0B433E
:10174800C2F89030236813F4800F08D0394AD2F8D1
:10175800903023F08063A16F0B43C2F89030236868
:1017680013F4001F0DD0334AD2F8903023F00063F1
:10177800E16F0B43C2F89030E36FB3F1006F00F0F4
:10178800C180236813F0080F00D0012513F4802FBF
:1017980008D0284AD2F8903023F04073616F0B4389
:1017A800C2F89030236813F4000F09D0214AD2F808
:1017B800903023F08053D4F880100B43C2F8903057
:1017C800236813F0806F09D01A4AD2F8903023F0BA
:1017D8000053D4F884100B43C2F89030236813F0F8
:1017E800006F09D0134AD2F88C3023F00073D4F874
:1017F80088100B43C2F88C30236813F0805F09D03F
:101808000C4AD2F88C3023F08063D4F88C100B4348
:10181800C2F88C30002E77D12368B3F1007F73D0E3
:10182800002D40F00481002003B0F0BD0125BFE683
:101838000126CFE600380240B74B1A6C42F08052BE
:101848001A641B6C03F080530193019BB34A13681D
:1018580043F480731360FEF7A7FE0746AF4B1B687F
:1018680013F4807F06D1FEF79FFEC01B6428F5D9CC
:101878000320D9E7A84B1B6F13F4407315D0226BD4
:1018880002F440729A4210D0A34B1A6F22F44072AD
:10189800196F41F480311967196F21F48031196784
:1018A8001A671B6F13F0010F12D1236B03F44072F8
:1018B800B2F5407F1DD0984A936823F4F8139360DB
:1018C80095490B6F226BC2F30B0213430B678CE62F
:1018D800FEF76AFE0746904B1B6F13F0020FE4D128
:1018E800FEF762FEC01B41F288339842F3D9032009
:1018F8009AE78948826822F4F812894919400A430C
:101908008260DDE701253CE7834A136823F08063A2
:101918001360FEF749FE06467F4B1B6813F0006F05
:1019280006D0FEF741FE801B6428F5D903207BE72B
:10193800236813F0010F13D0636B8BB9764AD2F882
:101948008430D2F88410606803F4403343EA80138B
:1019580001F070610B43A16843EA0173C2F8843057
:10196800236813F4002F03D0E26BB2F5801F06D072
:1019780013F4801F1ED0236CB3F5800F1AD1664A6A
:10198800D2F88430D2F88410606803F4403343EA14
:101998008013E06843EA006301F0E0410B43C2F8BA
:1019A8008430D2F88C3023F01F03616A01390B436D
:1019B800C2F88C30236813F0807F11D0564AD2F8D1
:1019C8008400D2F88410666823691B0443EA8613EE
:1019D80000F07060034301F0E0410B43C2F884302B
:1019E800236813F0007F0DD0626823691B0443EA63
:1019F8008213E26843EA0263A26843EA0273464A32
:101A0800C2F88430444A136843F080631360FEF7D9
:101A1800CBFD0646404B1B6813F0006F7FF400AF08
:101A2800FEF7C2FD801B6428F4D90320FCE63A4A7D
:101A3800136823F080531360FEF7B6FD0546364B56
:101A48001B6813F0005F06D0FEF7AEFD401B64284C
:101A5800F5D90320E8E6236813F4002F01D0E26BE0
:101A680022B113F4801F1DD0236CDBB92A4AD2F8A7
:101A78008830D2F88810606903F4403343EA801351
:101A8800A06943EA006301F0E0410B43C2F88830E3
:101A9800D2F88C3023F4F853A16A013943EA0123C0
:101AA800C2F88C30236813F4001F03D0E36FB3F13E
:101AB800006F37D0236813F0080F19D0164AD2F8F0
:101AC8008810D2F88830606903F4403343EA801301
:101AD80001F070610B43E16943EA0173C2F8883091
:101AE800D2F88C3023F44033E16A0B43C2F88C30CF
:101AF800094A136843F080531360FEF755FD044606
:101B0800054B1B6813F0005F1FD1FEF74DFD001B4E
:101B18006428F5D9032087E60038024000700040A9
:101B2800FFFCFF0F0A4AD2F88800D2F888106569CE
:101B3800236A1B0443EA851300F07060034301F035
:101B4800E0410B43C2F88830B4E700206CE600BFE0
:101B580000380240F8B505460F4616461C462B6865
:101B68009B683B40B34238D0B4F1FF3FF7D02CB16B
:101B7800FEF71AFD069BC01AA042F0D32A685368E4
:101B880023F0E00353606B68B3F5827F0BD0AB6A38
:101B9800B3F5005F14D0012385F85D30002385F884
:101BA8005C3003201AE0AB68B3F5806F18BFB3F55B
:101BB800004FECD12A68136823F040031360E6E76E
:101BC8002A68136823F400531B041B0C13602A684B
:101BD800136843F400531360DDE70020F8BDF0B547
:101BE80083B007460D4614461E4602E0B6F1FF3F95
:101BF80010D13A6893682B40A34241D0B5F5C06F25
:101C080008BF002CF2D1137BDBB28DF807309DF8AA
:101C18000730EBE72EB1FEF7C7FC089BC01AB042AD
:101C2800E7D33A68536823F0E00353607B68B3F561
:101C3800827F0BD0BB6AB3F5005F14D0012387F80D
:101C48005D30002387F85C3003201AE0BB68B3F5E9
:101C5800806F18BFB3F5004FECD13A68136823F0D2
:101C680040031360E6E73A68136823F400531B0443
:101C78001B0C13603A68136843F400531360DDE7E4
:101C8800002003B0F0BD70B582B004460D4616467C
:101C980000920B4600224FF4C051FFF7A0FFB8B9DD
:101CA80000962B46002280212046FFF753FFB8B943
:101CB80000962B4600224FF4C0612046FFF78FFFA5
:101CC800034650B1236E43F020032366032304E048
:101CD800236E43F0200323660323184602B070BD29
:101CE800236E43F0200323660323F6E770B582B022
:101CF80004460D4616464368B3F5827F0FD000961A
:101D08002B46002280212046FFF724FF034698B97E
:101D18006268B2F5827F15D0184602B070BD83683C
:101D2800B3F5806F18BFB3F5004FE8D102681368A8
:101D380023F040031360E2E7236E43F02003236699
:101D48000323E9E7A268B2F5806F18BFB2F5004F28
:101D5800E2D100962B4600224FF4C0612046FFF7DF
:101D68003EFF03460028D7D0236E43F020032366A6
:101D78000323D1E7002858D010B504460023836216
:101D880090F85D30002B45D0022384F85D3022683E
:101D9800136823F040031360E368B3F5E06F3ED99E
:101DA8000022B3F5706F18BFB3F5E06F01D00021C2
:101DB800A162216B21B9B3F5E06F33D90223236304
:101DC8006368A1680B4321690B4361690B43A169EF
:101DD80001F400710B43E1690B43216A0B43A06ACC
:101DE800216803430B60638B03F00403616A0B43B0
:101DF800616B0B43E1680B43216813434B60226816
:101E0800D36923F40063D36100202066012384F89A
:101E18005D3010BD80F85C3001F0FAFFB4E74FF494
:101E28008052BEE701232363CAE7012070472DE9EA
:101E3800F04182B01E4690F85C30012B00F0AC8077
:101E480004460D469046012380F85C30FEF7ACFB53
:101E5800074694F85D30DBB2012B09D0022001233C
:101E680084F85D30002384F85C3002B0BDE8F0816E
:101E7800B8FA88F35B09002D08BF0123002B40F056
:101E88008380032384F85D3000232366A563A4F8C8
:101E98003C80A4F83E802364A4F84430A4F846307B
:101EA8002365E364A368B3F5004F0DD023681A686F
:101EB80012F0400F03D11A6842F040021A60E3683A
:101EC800B3F5E06F0BD82FE02268136843F4804322
:101ED8001360EBE7002E59D0B6F1FF3F10D1E38F26
:101EE8009BB2002B3BD023689A6812F0020FF1D006
:101EF80035F8022BDA60E38F013B9BB2E387EEE70C
:101F0800FEF752FBC01BB042E9D30320A7E72A78AB
:101F18001A73E38F013B9BB2E387013504E0002E7F
:101F280036D0B6F1FF3F13D1E38F9BB2BBB1236824
:101F38009A6812F0020FF2D0E28F92B2012AE6D923
:101F480035F8022BDA60E38F023B9BB2E387EBE7BD
:101F5800FEF72AFBC01BB042E6D303207FE73A46D0
:101F680031462046FFF78FFE08B120232366A36879
:101F780033B901932368DA6801929B680193019B46
:101F8800236E3BB900206AE7012068E7032066E773
:101F9800032064E7012062E7022066E72DE9F843A1
:101FA8009846089D90F85C30012B00F04381044668
:101FB8000F461646012380F85C30FEF7F5FA814695
:101FC80094F85D30DBB26268012B13D0B2F5827FE2
:101FD80008D00220012384F85D30002384F85C30A7
:101FE800BDE8F883A268002A40F01C81042B01D0C8
:101FF8000220EFE7B6FA86F35B09002F08BF01233A
:10200800002B40F01181B8F1000F00F00F8194F817
:102018005D30DBB2042B02D0052384F85D30002349
:1020280023662664A4F84680A4F84480A763A4F82D
:102038003E80A4F83C80E3642365E368B3F5E06F71
:1020480004D8B4F846309BB2012B22D922685368D1
:1020580023F48053536023681A6812F0400F03D1A9
:102068001A6842F040021A60E368B3F5E06F54D989
:1020780063681BB1E38F9BB2012B07D1236837F844
:10208800022BDA60E38F013B9BB2E3874FF0010834
:102098001CE02268536843F480535360DBE7B4F8CC
:1020A80046309BB27BB123689A6812F0010F0AD0C0
:1020B800DB6826F8023BB4F84630013B9BB2A4F833
:1020C80046304FF00108B5F1FF3F1ED1E38F9BB2B8
:1020D8002BB9B4F846309BB2002B00F09780B8F1CA
:1020E800000FDCD0E38F9BB2002BD8D023689A680E
:1020F80012F0020FD3D037F8022BDA60E38F013BDE
:102108009BB2E3874FF00008C9E7FEF74DFAA0EB52
:102118000900A842DAD303205CE763681BB1E38FA8
:102128009BB2012B07D1236817F8012B1A73E38F91
:10213800013B9BB2E3874FF0010829E03A781A7314
:10214800E38F013B9BB2E38701374FF00008B4F8F7
:1021580046309BB2CBB123689A6812F0010F14D0B5
:10216800B4F8462092B2012A3CD9DB6826F8023B33
:10217800B4F84630023B9BB2A4F84630B4F8463077
:102188009BB2012B26D94FF00108B5F1FF3F35D19D
:10219800E38F9BB223B9B4F846309BB2002B35D0FD
:1021A800B8F1000FD3D0E38F9BB2002BCFD02368B8
:1021B8009A6812F0020FCAD0E28F92B2012ABDD9F2
:1021C80037F8022BDA60E38F023B9BB2E3874FF0CC
:1021D8000008BCE72268536843F4805353604FF00B
:1021E8000108D2E71B7B3370B4F84630013B9BB241
:1021F800A4F8463001364FF00108C6E7FEF7D4F9D7
:10220800A0EB0900A842C3D30320E3E64A462946C7
:102218002046FFF738FD08B120232366236E3BB91B
:102228000020D7E60220D5E60120D3E60120D1E63A
:102238000120CFE60220D3E62DE9F04182B0044622
:102248000D4690461E464368B3F5827F19D094F830
:102258005C30012B00F0B080012384F85C30FEF77D
:10226800A3F9074694F85D30DBB2012B15D00220A4
:10227800012384F85D30002384F85C3002B0BDE8A7
:10228800F0818368002BE2D1042380F85D3000964A
:1022980013460A46FFF782FEF0E7B8FA88F35B09AF
:1022A800002D08BF0123002B7ED1042384F85D3064
:1022B800002323662564A4F84480A4F84680A36319
:1022C800A387E387E3642365E368B3F5E06F16D972
:1022D8002268536823F480535360A368B3F5004F12
:1022E80013D023681A6812F0400F03D11A6842F01D
:1022F80040021A60E368B3F5E06F11D92EE0226856
:10230800536843F480535360E7E72268136823F463
:1023180080431360E5E7002E48D0B6F1FF3F12D1A5
:10232800B4F846309BB29BB323689A6812F0010F49
:10233800F1D01B7B05F8013BB4F84630013B9BB25A
:10234800A4F84630ECE7FEF72FF9C01BB042E7D3FC
:1023580003208DE766B3B6F1FF3F12D1B4F84630DB
:102368009BB2ABB123689A6812F0010FF2D0DB6818
:1023780025F8023BB4F84630013B9BB2A4F846303E
:10238800ECE7FEF711F9C01BB042E7D303206FE773
:102398003A4631462046FFF7A9FC08B120232366B8
:1023A800236E3BB9002063E7012061E703205FE764
:1023B80003205DE701205BE702205FE790F85D00FE
:1023C80070472DE9F04105460F4616469846069C8B
:1023D8002B68DB6937EA03030CBF01230023B342F0
:1023E8001DD1B4F1FF3FF3D02CB1FEF7DDF8A0EB1F
:1023F8000800A042ECD32A68136823F4D073136052
:102408002A68936823F001039360202385F86930D4
:1024180085F86A30002385F86830032000E0002042
:10242800BDE8F08110B50446836802691343426928
:102438001343C2691343016808689D4A0240134365
:102448000B602268536823F44053E1680B435360E0
:10245800A369226A1A4321688B6823F43063134303
:102468008B602368934A934219D0934A93422AD0A7
:10247800924A934240D0924A934255D0914A93420D
:102488006AD0914A934200F08280904A934200F0C9
:1024980099808F4A934200F0B0801022C9E002F57B
:1024A8009432D2F8902002F00302032A03D8DFE81E
:1024B80002F0BF0604081022BBE00222B9E00422A1
:1024C800B7E00822B5E002F5FA32D2F8902002F01F
:1024D8000C020C2A08D8DFE802F0BA0707070B0736
:1024E8000707090707070D001022A2E00222A0E053
:1024F80004229EE008229CE002F5F832D2F89020EF
:1025080002F03002102A0DD005D9202A08D0302A2E
:1025180004D108228DE00AB900228AE0102288E05E
:10252800022286E0042284E002F5F632D2F89020F6
:1025380002F0C002402A0DD005D9802A08D0C02A4E
:1025480004D1082275E00AB9002272E0102270E076
:1025580002226EE004226CE002F5F432D2F89020F8
:1025680002F44072B2F5807F0FD007D9B2F5007F30
:1025780009D0B2F5407F04D108225AE00AB90022F6
:1025880057E0102255E0022253E0042251E002F500
:102598009232D2F8902002F44062B2F5806F0FD0E8
:1025A80007D9B2F5006F09D0B2F5406F04D10822FF
:1025B8003FE00AB901223CE010223AE0022238E06A
:1025C800042236E002F5E032D2F8902002F44052BC
:1025D800B2F5805F0FD007D9B2F5005F09D0B2F528
:1025E800405F04D1082224E00AB9002221E0102229
:1025F8001FE002221DE004221BE002F5DE32D2F8C1
:10260800902002F44042B2F5804F0FD007D9B2F5BE
:10261800004F09D0B2F5404F04D1082209E00AB9A9
:10262800002206E0102204E0022202E0042200E078
:102638000122E169B1F5004F0BD0082A00F29B8016
:10264800DFE802F0616D7999839999998F000022EA
:10265800EFE7082A54D8DFE802F0051722533F5362
:1026680053534A00FEF754FF6268530803EB4003D4
:10267800B3FBF2F39BB2002023F00F02C3F3420333
:1026880013432268D36010BDFEF752FF62685308F7
:1026980003EB4003B3FBF2F39BB20020ECE7626864
:1026A8000C4B03EB5203B3FBF2F39BB20020E3E7BE
:1026B800F369FFEF0010014000440040004800406B
:1026C800004C0040005000400014014000780040D9
:1026D800007C00400048E801FEF7F6FD62685308F8
:1026E80003EB4003B3FBF2F39BB20020C4E762683C
:1026F800530803F58033B3FBF2F39BB20020BBE72A
:1027080001200023B8E7FEF703FF636800EB5300DE
:10271800B0FBF3F0236880B2D8600020B3E7FEF77F
:1027280007FF636800EB5300B0FBF3F0236880B247
:10273800D8600020A7E76168104A02EB5102B2FB9B
:10274800F1F292B2DA6000209DE7FEF7BDFD636802
:1027580000EB5300B0FBF3F0236880B2D860002090
:1027680091E761684A0802F50042B2FBF1F292B2C1
:10277800DA60002087E7012085E700BF0024F40025
:10278800436A13F0010F06D00268536823F400333C
:10279800816A0B435360436A13F0020F06D0026844
:1027A800536823F48033C16A0B435360436A13F0C0
:1027B800040F06D00268536823F48023016B0B438F
:1027C8005360436A13F0080F06D00268536823F475
:1027D8000043416B0B435360436A13F0100F06D05C
:1027E8000268936823F48053816B0B439360436AB8
:1027F80013F0200F06D00268936823F40053C16BCE
:102808000B439360436A13F0400F0AD00268536881
:1028180023F48013016C0B435360036CB3F5801FE2
:102828000BD0436A13F0800F06D00268536823F474
:102838000023816C0B43536070470268536823F48C
:10284800C003416C0B435360EBE710B582B00446FC
:102858000023C366FDF7A8FE2268126812F0080F6D
:1028680009D1202384F8693084F86A30002084F87C
:10287800680002B010BD6FF07E430093034600224B
:102888004FF400112046FFF79CFD0028E9D00320F3
:10289800EFE778B310B5044690F869300BB32423FA
:1028A80084F869302268136823F001031360204616
:1028B800FFF7B8FD012813D0636ABBB922685368D3
:1028C80023F4904353602268936823F02A039360AB
:1028D8002268136843F0010313602046FFF7B5FF31
:1028E80010BD80F8683001F0DDFAD8E72046FFF720
:1028F80047FFE3E701207047002301330C4A934266
:1029080011D80269002AF8DA036943F00103036168
:1029180000230133064A934207D8026912F0010FD7
:10292800F7D100207047032070470320704700BF8D
:10293800400D030084B010B5044603A880E80E00DB
:10294800089B012B1ED1A36B23F48033A363E26899
:10295800164B1340E360E36823F44013E3600F9BD6
:10296800012B0AD02046FFF7C7FF069B012B14D086
:102978000020BDE8104004B07047E36843F48013BA
:10298800E360EFE7E36843F04003E3602046FFF7C6
:10299800B3FF4FF48033A363E7E7A36843F006036C
:1029A800A360A36843F02003A360E1E7BFFFBDFF76
:1029B800836823F0010383600020704708B5C3686B
:1029C80023F0C043C360012909D069B9C36843F043
:1029D8008043C3603220FDF7EDFD002008BDC368C9
:1029E80043F00053C360F5E70120F7E7890141F0A0
:1029F8002001016100230133054A934205D8026989
:102A080012F0200FF7D1002070470320704700BF55
:102A1800400D03001023036100230133054A93424C
:102A280005D8026912F0100FF7D100207047032073
:102A3800704700BF400D0300D0F800381943C0F8B4
:102A4800001800207047000084B0F8B5044607A8B5
:102A580080E80E002546002306E003F1400204EB5F
:102A680082020021516001330E2BF6D9A36B43F487
:102A78000013A363119F5FB9A36B23F40013A3632F
:102A8800236843F040032360236843F080032360F6
:102A98000023C4F8003E04F50066D4F80038C4F8F2
:102AA80000380C9B012B08D0032B17D1099B83B945
:102AB80000212046FFF7C0FF14E0099B23B900213D
:102AC8002046FFF7B9FF0DE001212046FFF7B4FFCC
:102AD80008E001212046FFF7AFFF03E0032120466D
:102AE800FFF7AAFF10212046FFF780FF2046FFF7D7
:102AF80091FF002333617361F3610AE0C3B94FF0BA
:102B08000060C2F8000900220A614FF67F328A602D
:102B180001330799994210D905EB431202F5106168
:102B2800D2F800090028E9DB0020C2F80009EAE72A
:102B38004FF09040C2F80009E5E700230AE0CBB166
:102B48004FF0904CC2F800CB002202614FF67F3262
:102B580082600133994212D905EB431202F53060C5
:102B6800D2F800CBBCF1000FE9DB4FF0000CC2F843
:102B780000CBE9E74FF0006CC2F800CBE4E733691B
:102B880023F4807333610A9B012B1AD00022A261BF
:102B98006FF0804262611BB9A36943F01003A3611F
:102BA800A2690E4B1343A3610D9B1BB1A36943F0AC
:102BB8000803A361012F0BD00020BDE8F84004B042
:102BC8007047074A3263316B064A0A433263DDE7CE
:102BD800A269054B1343A361EEE700BF00383C80B0
:102BE80000018000030001000400004008B5D0F88F
:102BF800043843F00203C0F804380320FDF7DAFC78
:102C0800002008BD50B182695AB1C26962B1036A35
:102C18000BB1002070474FF0FF3070474FF0FF3086
:102C280070474FF0FF3070474FF0FF30704710B5D6
:102C3800044600F09DFA034608B1184610BD204628
:102C480000F060FD0346F8E710B50446FFF7DAFF29
:102C5800034608B1184610BD034B2361204600F017
:102C6800B5FA0346F6E700BF5841000830B583B00F
:102C780005460C460846FFF7C5FF034658B9EDB2AE
:102C8800022D13D0032D09D0012D16D0204600F0B7
:102C9800B4FB0346C8B1184603B030BD0C236372B9
:102CA80002232372012363732373EFE70B236372F9
:102CB8000223237263732373E8E70A2363720223F0
:102CC8002372032363732373E0E7204600F039FD82
:102CD80003460028DFD105F0030502A921F8045DA9
:102CE80023460122022000F029FB0346D3E770B5F2
:102CF80082B005460E4614461046FFF783FF2B1C8C
:102D080018BF012300280CBF1846002078B38EB3E3
:102D18002346042269461E2000F0D4FA034610B167
:102D2800184602B070BD2346022201A9272000F0F0
:102D3800C9FA03460028F3D19DF800309DF8012018
:102D480043EA02232B809DF802309DF8032043EAD2
:102D580002236B809DF804309DF8052043EA022386
:102D6800AB802146304600F07CFD0346D8E74FF0A3
:102D7800FF33D5E74FF0FF33D2E738B504460D46A9
:102D880000F0C0FB034608B1184638BD2946E01CD0
:102D980000F0B8FB03460028F6D12946A01D00F034
:102DA80092FD03460028EFD1294604F1090000F0FE
:102DB8008AFD0346E8E70000F0B583B016461F46D3
:102DC80001F07F0102AC04F8011D0546002201460E
:102DD8001048FDF79DFF3223012221460E48FFF7D8
:102DE80026F80D48FFF7EAFA0228FAD032233A46C5
:102DF80031460948FFF71BF80748FFF7DFFA0228B2
:102E0800FAD0012229460348FDF782FF002003B0CB
:102E1800F0BD00BF00040240F00400202DE9F0439B
:102E280083B09046994661F07F0102AC04F8011D19
:102E380006460E4D002201462846FDF769FF0C4F55
:102E48003223012221463846FEF7F1FF32234A4653
:102E580041463846FFF7F0F9012231462846FDF78A
:102E680057FF002003B0BDE8F08300BF0004024014
:102E7800F004002050B182695AB1C26962B1036A94
:102E88000BB1002070474FF0FF3070474FF0FF3014
:102E980070474FF0FF3070474FF0FF30704738B53C
:102EA8001C461B79012B09D0E56913460A460146E1
:102EB800A078A847034620B9184638BD00F07F001F
:102EC800F2E76FF00103F7E730B583B00546144623
:102ED8004908C1F307138DF8073001F00F0302A961
:102EE80001F8023D134601225B20FFF7D8FF034695
:102EF80010B1184603B030BD234601220DF1070179
:102F08005C20FFF7CCFF03460028F2D12346227D40
:102F180029465E20FFF7C3FF0346EAE72DE9F84399
:102F280000AF894615461C465B7913449BB2DA1DEF
:102F3800D2086946A1EBC2029546E8462279012AE1
:102F480008D0A66942460146A078B047014620B994
:102F580000230DE040F08000F3E76FF0010109E085
:102F680062791A4418F8022009F8032001339BB249
:102F7800AB42F5D30846BD46BDE8F88370B582B0CC
:102F8800037823B1012B38D06FF0040332E05326C5
:102F98000D4604460B4601220DF107013046FFF7A6
:102FA800BDFF034630BB9DF8073023F002035BB238
:102FB800A27802F0010143EA410323F00403C2F3BB
:102FC800400243EA8203DAB26178022917D023F07B
:102FD8000803A278C2F3800243EAC20303F0EF03B6
:102FE8008DF807302B4601220DF107013046FFF717
:102FF80056FF0346184602B070BD5426C8E742F093
:10300800010323F010035BB2A278C2F3800243EA03
:10301800021303F0F7038DF80730E3E730B583B008
:1030280005460C460846FFF725FF0346C8B90023A6
:103038008DF807302B7823B1012B15D06FF00403DE
:103048000FE05620AB7813F0040F02D001238DF85F
:103058000730234601220DF10701FFF720FF034641
:1030680020B1184603B030BD5720EBE7214628466B
:10307800FFF784FF0346F4E738B505460C460846D3
:10308800FFF7F8FE034608B1184638BD2146284622
:10309800FFF774FF0346F7E730B583B005460C46E3
:1030A8000846FFF7E7FE0346C8B900238DF8073046
:1030B8002B7823B1012B15D06FF004030FE05620B5
:1030C800AB7813F0040F02D002238DF807302346A3
:1030D80001220DF10701FFF7E2FE034620B1184671
:1030E80003B030BD5720EBE721462846FFF746FFDF
:1030F8000346F4E730B583B005460C4602A9002321
:1031080001F8013D234601225820FFF707FF034637
:10311800C0B9AB78C3F380032A7822B1012A14D04E
:103128006FF004030EE09DF8072022F0040252B26B
:1031380042EA83038DF8073021462846FFF71EFF31
:10314800034660B1184603B030BD9DF8072022F051
:10315800400252B242EA83138DF80730ECE7234667
:1031680001220DF107015820FFF799FE0346E9E710
:1031780010B582B0044600238DF80730FFF77AFEB9
:10318800034628B92279012A05D00022627153B179
:10319800184602B010BD627123460DF10701FFF712
:1031A800BDFE0346F3E7234601220DF10701002087
:1031B800FFF7B4FE03460028EAD19DF807201E2A2F
:1031C80001D12270E4E76FF00203E1E770B582B045
:1031D800044600238DF807308DF806308DF8053049
:1031E800FFF748FE002861D12369002B61D0237DB9
:1031F800002B61D0234601220DF106017D20FFF747
:103208008DFE064610B1304602B070BD234601223D
:103218000DF107017D20FFF742FE06460028F2D196
:10322800236A05209847234601220DF107015920FA
:10323800FFF735FE06460028E5D1002509E020699C
:10324800224629462844FFF73FFE0646237D1D44B3
:10325800ADB2B5F5C05FF2D3002ED4D1012202A9D8
:1032680001F8012D23465920FFF719FE034650B9EE
:10327800236A96209847234601220DF105012A204A
:10328800FFF74CFE03461BB99DF80530012B16D1FC
:10329800234601220DF106017D20FFF700FE0646B8
:1032A8000028B0D1236A05209847ACE74FF0FF36D5
:1032B800A9E74FF0FF36A6E76FF00606A3E76FF021
:1032C8000506A0E7F8B507460C4616461D461846FB
:1032D800FFF7D0FD231C18BF012300280CBF184698
:1032E800002038B14EB12B46324621463846FFF70A
:1032F80015FEF8BD4FF0FF30FBE76FF00600F8E76A
:10330800F8B507460C4616461D461846FFF7B2FDA7
:10331800231C18BF012300280CBF1846002038B111
:103328004EB12B46324621463846FFF7B8FDF8BD68
:103338004FF0FF30FBE76FF00600F8E72DE9F047A4
:1033480000AF04468A4615461E461846FFF792FD0A
:10335800A1462C446400E31D03F4FF63ADEB030DA9
:10336800034618B11846BD46BDE8F087A8466D4625
:103378003346224629465E20FFF7A4FF034600286D
:10338800F0D100230AE03AF8132009EB03004100CA
:1033980005F810200131120A6A5401339845F2DC0D
:1033A8003346224629465E20FFF7AAFF0346D9E79F
:1033B80030B583B00546FFF75DFD044610B12046E1
:1033C80003B030BD02A9B62301F8013D2B46012206
:1033D8007E20FFF764FD04460028F0D12B6A012007
:1033E80098472B79012BEAD12B4601220DF10701D1
:1033F8000020FFF793FD0446E1E7F0B583B00446EB
:103408000023ADF80430FFF735FD0346C0B9677AED
:10341800257AE6797B1FDBB2072B14D80022022D10
:1034280013D80023032E12D80021134331D199BB9E
:103438002346022201A94020FFF770FD034640B150
:10344800184603B0F0BD0122E9E70123EAE70121AC
:10345800EBE79DF9043023F00F0307F00F073B4318
:1034680023F070032D0105F070051D438DF80450FD
:103478009DF9053023F0030306F003061E438DF87B
:1034880005602346022201A94020FFF708FD0346F4
:10349800D6E76FF00703D3E76FF00703D0E730B53F
:1034A80083B00446FFF7E6FC0546E8B9A379F3B90B
:1034B8008DF8043004238DF805302346012201A934
:1034C8007C20FFF7ECFC054670B9236A0520984775
:1034D800234601220DF105017D20FFF7E0FC05469A
:1034E80010B9236A05209847284603B030BD032B3E
:1034F80005D18DF8043000238DF80530DDE76FF035
:103508000405F1E738B504460D460846FFF7B2FC56
:10351800231C18BF012300280CBF18460020D0B177
:103528006378032B1AD8DFE803F002070C11294649
:103538002046FFF7DFFD38BD29462046FFF76EFD20
:10354800F9E729462046FFF797FDF4E72946204684
:10355800FFF7A2FDEFE74FF0FF30ECE76FF0070051
:10356800E9E750B182695AB1C26962B1036A0BB125
:10357800002070474FF0FF3070474FF0FF30704722
:103588004FF0FF3070474FF0FF30704738B51C469A
:103598001B79012B09D0A56913460A460146E07834
:1035A800A847034620B9184638BD40F08000F2E726
:1035B8006FF00103F7E738B51C461B79012B09D0DA
:1035C800E56913460A460146E078A847034620B94C
:1035D800184638BD00F07F00F2E76FF00103F7E707
:1035E80030B583B005460C460B4601220DF10701A4
:1035F8001620FFF7CBFF034658B92B7863B1012B90
:103608001CD0234601220DF107011620FFF7D3FF36
:103618000346184603B030BD9DF8073023F0010378
:103628005BB2AA7802F001010B4323F00203C2F354
:10363800400243EA42038DF80730E2E79DF807307D
:1036480023F004035BB2AA7802F0010143EA810384
:1036580023F00803C2F3400243EAC2038DF807309F
:10366800CFE730B583B005460C4602A9002321F800
:10367800043D234601221820FFF788FF034608BBB4
:10368800AB78C3F38003D9B22A7822B1012A1CD0BF
:103698006FF0040316E09DF9042022F001021343A1
:1036A8008DF804309DF8043013F0810F16D0802374
:1036B8008DF805302346012201A91820FFF77BFF6A
:1036C800034678B1184603B030BD9DF9043003F0C5
:1036D8007F0343EAC1138DF80430E3E700238DF834
:1036E8000530E7E721462846FFF77AFF034600281A
:1036F800E8D1234601220DF105011520FFF75BFFF4
:103708000346DFE710B582B0044600238DF8073082
:10371800FFF727FF034610B1184602B010BD234635
:1037280001220DF10701FFF731FF03460028F3D10D
:103738009DF807200F2A01D16270EDE76FF00203B0
:10374800EAE770B582B00446FFF70BFF034690B96D
:10375800657BE67A072D11D80023042E10D80022A5
:1037680013433ED1234601220DF107011020FFF734
:103778000DFF034630B1184602B070BD0123ECE7D7
:103788000122EDE79DF8073023F00F035BB205F047
:103798000F051D4302A901F8015D234601221020EF
:1037A800FFF709FF03460028E5D1234601220DF162
:1037B80007010F20FFF7EAFE03460028DBD19DF83A
:1037C800073023F007035BB206F007061E4302A981
:1037D80001F8016D234601220F20FFF7ECFE034696
:1037E800C9E76FF00703C6E730B583B00546FFF7B2
:1037F800B8FE044610B1204603B030BD2B46012266
:103808000DF106011120FFF7C1FE04460028F2D190
:10381800AB7A8DF80730802B11D00122202B16D0DF
:10382800E2B12B4601220DF107011120FFF7C3FE7B
:1038380004460028DFD12B6A1E209847DBE79DF855
:103848000620202A01D00122E8E70022E6E79DF8B9
:103858000630802BE4D16FF00404CCE76FF0040449
:10386800C9E730B583B004460D460846FFF779FE30
:10387800231C18BF012300280CBF18460020F8B1EC
:103888002B46062269460220FFF780FE0246A0B9B1
:103898009DF800309DF8011043EA012323809DF82C
:1038A80002309DF8031043EA012363809DF8043039
:1038B8009DF8051043EA0123A380104603B030BDEC
:1038C8004FF0FF32F9E738B504460D460846FFF7D2
:1038D80048FE231C18BF012300280CBF18460020EF
:1038E80030B163783BB929462046FFF7BAFE38BDA8
:1038F8004FF0FF30FBE76FF00700F8E72DE9F041E4
:103908008CB000240794089409940A940B94464BAD
:103918001A6B42F004021A631A6B02F00402019255
:10392800019A1A6B42F080021A631A6B02F0800245
:103938000292029A1A6B42F001021A631A6B02F0A1
:1039480001020392039A1A6B42F002021A631A6B7D
:1039580002F002020492049A1A6B42F008021A63F7
:103968001A6B02F008020592059A1A6B42F040029F
:103978001A631B6B03F040030693069B2B4F2246EA
:1039880044F2C4013846FDF7C3F9294E22464021C6
:103998003046FDF7BDF94FF401530793DFF89880DF
:1039A800CDF82080099407A92248FDF7C1F844F210
:1039B800C40307930125089509940A9407A9384672
:1039C800FDF7B6F84FF48043079302230893099450
:1039D8000A940B9307F5006707A93846FDF7A8F87E
:1039E80040230793089509940A9407A93046FDF7E0
:1039F8009FF8802307930894099407A93046FDF798
:103A080097F80795CDF82080099407A93846FDF75F
:103A18008FF8224621460620FCF7F2FD0620FCF727
:103A280021FE0CB0BDE8F0810038024000040240DD
:103A380000180240000802400000111000B583B0D1
:103A48001048114B036001234360002303828DF863
:103A5800003080228DF80120E1228DF802208DF8B7
:103A680003308DF804308DF80530C0F814D0836128
:103A7800C3614FF400030362FCF730FF03B05DF845
:103A880004FB00BF540500200080024008B5094827
:103A9800094B03604FF4E133436000238360C36044
:103AA80003610C2242618361C36103624362FEF7D2
:103AB800F0FE08BD5C0000200048004008B50A4838
:103AC8004FF0A0430360062343600222C260002334
:103AD8000361436182610122C26103624362C2627F
:103AE8000363FDF72BF908BDD000002008B50E4888
:103AF8000E4B03604FF482734360002383604FF4DE
:103B0800E062C260036143614FF400728261202267
:103B1800C2610362436283620722C26203630823AD
:103B28004363FEF727F908BDF00400200030014088
:103B380030B5B9B0342200212BA800F0F5FA0024E2
:103B480026942794289429942A949022214602A8FE
:103B580000F0EAFAFDF788F9204B1A6C42F080521F
:103B68001A641B6C03F080530093009B1C4B1A686B
:103B780042F440421A601B6803F440430193019BDE
:103B880001232B934FF4A0232C93022531954FF456
:103B98008003329304233393D82334933595092330
:103BA80036932BA8FDF7A6F9FDF766F90F232693A0
:103BB800279528944FF4A05329934FF480532A93C0
:103BC800072126A8FDF7ECFB064B029315942194D8
:103BD80002A8FDF7BDFC39B030BD00BF0038024077
:103BE800007000400001200008B5FCF7C5FCFFF795
:103BF8009FFFFFF783FEFFF721FFFFF747FFFFF760
:103C08005DFFFFF773FF2C4C002280212046FDF753
:103C18007FF800224FF480412046FDF779F8274CC1
:103C28002046FFF704F8264E30702046FFF7C0FB09
:103C38003070202323750025A5712046FFF72FFC3F
:103C48003070A5722046FFF7CFFD2046FEF7FCFF37
:103C58003070E571E57203201A4B18702146FFF7A2
:103C680005F830701848057002234370837803F014
:103C7800FD0343F0050383700126C670067143797E
:103C880003F0FD0343F0050343718571C571037AA1
:103C980043F0050365F34103037246728572C37AE4
:103CA80003F0FB03334365F34103C3722146FFF777
:103CB80064F8064B1E60FEE700040240080000207E
:103CC800CC000020D8040020E40400204C00002090
:103CD80082B00A4B1A6C42F080521A641A6C02F0D5
:103CE80080520092009A5A6C42F480425A645B6C8B
:103CF80003F480430193019B02B0704700380240EF
:103D0800F0B58DB000230793089309930A930B939A
:103D180002683A4B9A4201D00DB0F0BDA3F590432A
:103D28001A6B42F000721A631A6B02F0007200926A
:103D3800009A1A6B42F080621A631A6B02F0806272
:103D48000192019A1A6B42F000621A631A6B02F030
:103D580000620292029A1A6B42F004021A631A6B0A
:103D680002F004020392039A1A6B42F001021A63EA
:103D78001A6B02F001020492049A1A6B42F00202D2
:103D88001A631A6B02F002020592059A1A6B42F046
:103D980040021A631B6B03F040030693069B322311
:103DA80007930226089603250A950B240B9407A966
:103DB8001348FCF7BDFE862307930896002709974A
:103DC8000A950B9407A90F48FCF7B2FE4FF400536D
:103DD8000793089609970A950B9407A90A48FCF7D0
:103DE800A7FE4FF420530793089609970A950B945A
:103DF80007A90648FCF79CFE8EE700BF008002403A
:103E0800000802400000024000040240001802407E
:103E180070B588B000230393049305930693079322
:103E280002681D4B9A4201D008B070BD03F5843377
:103E38005A6C42F480525A645A6C02F480520092CE
:103E4800009A1A6B42F001021A631A6B02F001021F
:103E58000192019A1A6B42F008021A631B6B03F075
:103E680008030293029B602303930226049603250A
:103E780006950524079403A90848FCF759FE8023F2
:103E880003930496002305930695079403A9044811
:103E9800FCF74EFEC8E700BF0030014000000240BA
:103EA800000C024000B589B00023039304930593E6
:103EB800069307930268144B9A4202D009B05DF842
:103EC80004FB03F5F8331A6C42F480221A641A6C66
:103ED80002F480220192019A1A6B42F008021A63D6
:103EE8001B6B03F008030293029B4FF44073039388
:103EF80002230493032306930723079303A9034884
:103F0800FCF716FEDAE700BF00480040000C02404C
:103F180030B589B000230393049305930693079360
:103F28000368B3F1A04F01D009B030BD1A4C236B20
:103F380043F001032363236B03F001030093009B09
:103F48004FF4E853039302230493032306930A23AD
:103F58000793124D03A92846FCF7EAFD4FF40073B6
:103F6800039300230493059303A92846FCF7E0FD77
:103F7800636B43F080036363636B03F08003019317
:103F8800019B636C43F480436364636C03F4804374
:103F98000293029BC8E700BF0038024000000240BD
:103FA8007047FEE7FEE7FEE7FEE770477047704799
:103FB80008B5FCF7EDFA08BD10B51B4B1B68012BC3
:103FC80003D00120FCF7ACFE10BD184C184A194963
:103FD8002046FEF78CFEB4F90030C7339BB2B3F528
:103FE800C77F13D8012280211348FCF791FE0F4B9D
:103FF800B3F90230C7339BB2B3F5C77F0CD900229F
:104008004FF480410C48FCF783FEDAE70022802158
:104018000948FCF77DFEEAE701224FF48041064893
:10402800FCF776FECDE700BF4C000020D00400204E
:1040380008000020DC0400200004024010B40F4AED
:10404800D2F8883043F47003C2F888300C4B1968F2
:1040580041F001011960002098601C68094921405D
:10406800196009495960196821F480211960D860DC
:104078004FF0006393605DF8044B704700ED00E07B
:1040880000380240FFFFF6FE10300024DFF834D07D
:10409800002103E00C4B5B58435004310B480C4B98
:1040A80042189A42F6D30B4A02E0002342F8043B36
:1040B800094B9A42F9D3FFF7C1FF00F011F8FFF757
:1040C80093FD704700000820805900080000002078
:1040D80030000020300000209C050020FEE7000092
:1040E80070B50D4E0D4CA41BA4100025A54209D196
:1040F8000B4E0C4C00F020F8A41BA4100025A54280
:1041080005D170BD56F8253098470135EEE756F8C9
:10411800253098470135F2E77859000878590008A2
:10412800785900087C59000802440346934200D19C
:10413800704703F8011BF9E7F8B500BFF8BC08BCE5
:104148009E467047F8B500BFF8BC08BC9E4670474D
:10415800C82E002E802E4701C82E002EC82E002EF5
:10416800C82E002E802EA000802E7C00802E1101EB
:104178005039212EB0F01030212E16F0802E9001EB
:104188000000000000000000000000000000000027
:10419800000000000000000000005ABE802E180039
:1041A800802E1800802E1800802E1800802E1800EF
:1041B800802E1800802E1800802E1800802E1800DF
:1041C800802E1800802E1800802E1800802E1800CF
:1041D800802E1800802E1800802E1800802E1800BF
:1041E800802E180000000000000000000000000001
:1041F80000000000000000000000000000000000B7
:1042080000000000000000000000000000000000A6
:104218000000000000000000000000000000000096
:104228000000000000000000000000000000000086
:104238000000000000000000000000000000000076
:104248000000000000000000A050807FE77FD57FBD
:10425800C47FB37FA27F917FF67F7B7F002E012EE4
:1042680043F008BC0FB8607F002E606F00B2012FCA
:10427800982ED9B14030212EB8F0F66F916FA26F09
:10428800B36FC46FD56FE76F7B6F806F605FC82EA9
:10429800A050807FE77FD57FC47FB37FA27F917FC7
:1042A800F67F7B7F002E012E29F008BC0FB8607FB7
:1042B800002E606F01901B2F012E02010EBC0EB85C
:1042C8000090052F012E04010FBC0FB801B20D2F6D
:1042D800012E63000190042F982E6DB20030212E1C
:1042E8006300012E37F0212E37F0022D982E45B3AA
:1042F8008030212EB8F0F66F916FA26FB36FC46F44
:10430800D56FE76F7B6F806F605FC82E4030212EBE
:10431800BAF0B82E8030212EBAF010248000032E77
:1043280006F0080A212E06F0003E032E06F00808C3
:104338005130010A212E06F0B82E0031212EBAF094
:10434800B82E1030212EBBF0B82E802E1800FD2D6F
:10435800AA0005000000000004000100ED8FD9311B
:10436800C6018C03C60100000E000E0010001000EC
:1043780010006050E77FF67F36300F2E01F0FEBF49
:10438800FEBBB705A67FD37FC47FB57F142489F011
:104398003F8B03414441B8BD9C0BA36F1424190003
:1043A800B311438B1643002E67414641F8BFBE0B3D
:1043B800B3111643438D002EA5418641D8BE6E0B1E
:1043C800EB1003431330272E18000331272EB8F0C3
:1043D800F66FE76FC46FB56FD36FA05FC82EA0509C
:1043E800807F917FE77FD57FC47FB37FA27FF67FF1
:1043F8007B7F002E012EB9F0607F1030616F0808B6
:1044080000B2012F982EE6B01030212EB9F0212EDF
:104418005FF0F66F916FA26FB36FC46FD56FE76FE0
:104428007B6F806F605FC82E982E9E012026982E85
:10443800DE00982EF900982EF500982EE200103034
:10444800212E59F0982E9401213010241900002EA5
:10445800002ED02E052E180080B20230052F232EF4
:104468005FF0252E1800982E00B0982E51B2EC2D32
:104478001A242600802E6C011050012E55F0F07F72
:10448800002EF06F212E55F0F05FB82E205000302E
:10449800E07FFB7F1124B1F042404330930A42424F
:1044A80058821224AF0062421224FF0042426982FD
:1044B800723C43409A088332930A42424282023F46
:1044C80043409A0852420B314B427E82123142429B
:1044D8001124FE00052E40F051085E90272F11246C
:1044E8000002122405801324FFB71B2400B00430F7
:1044F800053056326E1A002FA534691A012F5B2534
:10450800002E5641260D0630CFBB41BEC091012F6B
:10451800002E012D220D818D90A1F52FEB0EE82F95
:10452800012E2500201A052F2030E07F032D303082
:10453800E07F002EE06F00B2032F212E59F0982E55
:104548009401FB6FE05FB82E802E1800802E1800B3
:10455800B050F07F002E012E010102BC0FB8E07FA1
:10456800002E012E010101BC0FB8D07F002E012EB4
:1045780001010FB8C07F0230E66FD46FC36F80911E
:10458800042F0091022FC0B2902EE2B0F06F0B2ED4
:10459800240001824091142F4187272E24000040D7
:1045A800212E1F005340102420001342002E4140AA
:1045B8000142252E1C00252E1D00252E2200505FAD
:1045C800B82E0B2E0001D5BED5BAB57F002E0B2E06
:1045D8000101D3BED3BAA57F002E0B2E0001D4BE95
:1045E800DFBA957F002E956F0F2E1E003D1A052FFE
:1045F800252E1C00252E1D002B2E1E00827F727F6B
:104608008091627F012F0630072D06400F2E1F0074
:10461800B70580A9D605B723867F0091012F0430FE
:10462800072D44400D2E2000260500A994052623B9
:10463800747FC090012F002E092D0286002EC340E2
:10464800092E2100DC04C0A893049A22627F12304C
:10465800846FB36F630F1430082F746F630F1430B7
:10466800042F646F630F1430002F0430547F40917F
:104678000B2E1C00546FA36F6A291D2F0091063062
:10468800142420000D2F2D2E1C00052E1D008184C2
:10469800252E1D00052E1D00530E2B2F2D2E22001A
:1046A800292D2B2E1C002D2E1D000B2E1C006B0EF1
:1046B800202F252E22001E2D00B3052F0230252E77
:1046C8001C00252E2200082D2B2E1C00092E1C0054
:1046D800630E012F252E22000240252E1F003125B2
:1046E800002ED5401224200042259542002EC340BA
:1046F8008342002E052E220080B20D2F0040212E6D
:104708001F0050401043002E404000432030212E0F
:104718005EF0022D252E2400505FB82E3050FB7F0E
:10472800982E23B213244F00D042C142FA82D17F7F
:10473800E37F982E8DB1D16F002E414040B26D2F8E
:10474800E16F4484032E4F008340B7844B048142B9
:10475800002E8340C0AC012F232E4B00122593401E
:1047680082401A0F012FC0AC022F0330272E4B00B6
:104778004286C984C0404340180E8240252F122526
:10478800122451008F808240E07F982E69B1E16F3A
:10479800002E404277827B84B986D6804140824091
:1047A800C340E07F982E69B1E16F002E40427782C6
:1047B8007B84B886D78041408240C340E07F982EF2
:1047C80069B1E16F002E4042242D11245B00458021
:1047D8004140E07F982E7BB1E16F002E40427C8201
:1047E8007B84B486D68041408240C340E07F982EC7
:1047F8007BB1E16F002E40427C827B84B386D780F8
:1048080041408240C340E07F982E7BB1E16F002E8B
:104818004042982EC5B11130232E5EF0FB6FD05F59
:10482800B82E3050F37FE27FD17F13244E00D16F32
:10483800E46FE240F06F2105C340A2100304101892
:10484800D05F0E00B82E3050F37FE27FD17F132463
:104858004E00E16FD46FE240F06F2105C340A21013
:1048680018041018D05F0E00B82E012E02018EBC5D
:10487800012E4A009EB8011A2E2F012E02010EBCED
:104888000EB8212E4A00032E4A0043B210244D00D0
:104898001B2F42B2112F41B2062F013011420142A3
:1048A8003E80002E0142B82E413311426130014250
:1048B8003E80112480000142B82E0130114251304F
:1048C80001423E8041330142B82E713011424130DD
:1048D80001423E8081310142B82E1024600011242B
:1048E80052F01240524228B55242002E1240424223
:1048F80042820040504208B440427E80A8B401423F
:10490800B82E12245900904084822050504277805B
:1049180082404242FB7F0582004040427C80058203
:10492800004040427C800582004040427784002E4F
:104938009040848282405042778042420582004003
:1049480040427C800582004040427C8005820040D5
:1049580040427C82E17F982E23B2E26F002E904283
:104968008142BC82102433F023400240B8BD9A0A29
:1049780003805242002E23400240B8BD9A0A0380A9
:104988005242002E2240004028BD100A4042002E0C
:10499800FB6FE05FB82E112428F050506040F07F84
:1049A80051256040E07F002E4140D17F002EE26F0C
:1049B800D06F00B2F36FA8B828BE590A200A012F99
:1049C800B05FB82E4541C57F002EC56F4091092FB5
:1049D800052E28F0B27F002EB26F1A1A072FF03F6B
:1049E8001325052D151A022F1024FF00200AB05F89
:1049F800B82E012E03018FBC012E23009FB8011A87
:104A0800122F012E03010FBC0FB8212E23001130E5
:104A1800052E23005108D23F012E07F0020891BC51
:104A2800010A212E07F0B82EB82E105012246D005E
:104A380000301B2DF16FD100002EC042BD84D10083
:104A4800002EC0428984D100002EC042BD84D1000E
:104A5800002EC0428984D100002EC042BD84D100FE
:104A6800002EC0424182F17FB784F16F42A2E12F4C
:104A7800F05FB82EC050927FFB7F817F0030607F4F
:104A8800707F507F002E032E04019DBC9EB8417F8D
:104A9800002E426F527FE27F002E836FC382D37F46
:104AA8000C2D556F7F89DC019D01CB418B43CC01D7
:104AB8004D01C7414743547F002E546F00ABF02F80
:104AC8009B6F8A004B42C27FB17F507F7D80A07F61
:104AD800132408013F2D506F1801C684C8005000E8
:104AE8000541C7404440616F736F2F1800B30B2F07
:104AF80010A1032F3089BC11CE17062D741306316F
:104B0800B405BE15FC11AE0B4E00DF02617F737F4A
:104B1800B7840182D1008680A26F11018100C34051
:104B2800054184401D18726F00B3636F0B2F10A1ED
:104B3800032F3089BC11CE17062D74130631B40526
:104B4800BE15FC11AE0BDE049706637F727F517FA2
:104B58003D86B16FE26F506F420EBC2FE06FC68288
:104B680098004800C06F834004404240616F706FF6
:104B780080B21C180B2F90A0032FB084BA11CE1747
:104B8800062D0331DA04FB143213FA11A30B4E007D
:104B98000702617F707F002E726F80A8606FD16FEF
:104BA800132F8090032F1324FF7F430F0D2FBFA0D7
:104BB800072FBF90032F12240080420E012F40427E
:104BC800072D102400804042032D1024FF7F40420F
:104BD800002EFB6F405F4040B82E11246300305018
:104BE80010305042FB7F102433F023400240B8BD00
:104BF8009A0A03805242002E23400240B8BD9A0A06
:104C080003805242002E23400240B8BD9A0A3C80DD
:104C180042427E84E07F8682D17F002E8240982E99
:104C280092B2D16F7D82002E40427E800B8202407C
:104C3800D17F982E92B2D16F7882002E40427E802A
:104C480010820240D17F982E92B2D16F7382002ECB
:104C580040427E80E16F1240524228B55242002EF7
:104C68001240524228B55242002E0040504208B429
:104C78004042002EFB6FD05FB82E802E1800802E89
:104C88001800802E1800802E1800802E1800802E04
:104C98001800802E1800802E1800802E1800802EF4
:104CA8001800802E1800802E1800802E1800802EE4
:104CB8001800802E1800802E1800802E1800802ED4
:105948001800802E1800802E1800802E1800FD2DBB
:105958000000000000000000010203040607080917
:0859680000000000010203042D
:08597000F8A8FF7F0100000010
:045978001D02000804
:04597C00F901000825
:1059800001000000100000000000400401000000C1
:105990000000000000000000000000000000000007
:1059A000252E0008C12D0008BD0500080024F400C4
:04000005080040951A
:00000001FF
